{
  "_format": "hh-sol-artifact-1",
  "contractName": "BoredApe",
  "sourceName": "contracts/BoredApe.sol",
  "abi": [
    {
      "inputs": [
        {
          "internalType": "string",
          "name": "uri",
          "type": "string"
        },
        {
          "internalType": "bytes32",
          "name": "merkleroot",
          "type": "bytes32"
        },
        {
          "internalType": "address",
          "name": "_proxyRegistryAddress",
          "type": "address"
        }
      ],
      "stateMutability": "nonpayable",
      "type": "constructor"
    },
    {
      "anonymous": false,
      "inputs": [
        {
          "indexed": true,
          "internalType": "address",
          "name": "owner",
          "type": "address"
        },
        {
          "indexed": true,
          "internalType": "address",
          "name": "approved",
          "type": "address"
        },
        {
          "indexed": true,
          "internalType": "uint256",
          "name": "tokenId",
          "type": "uint256"
        }
      ],
      "name": "Approval",
      "type": "event"
    },
    {
      "anonymous": false,
      "inputs": [
        {
          "indexed": true,
          "internalType": "address",
          "name": "owner",
          "type": "address"
        },
        {
          "indexed": true,
          "internalType": "address",
          "name": "operator",
          "type": "address"
        },
        {
          "indexed": false,
          "internalType": "bool",
          "name": "approved",
          "type": "bool"
        }
      ],
      "name": "ApprovalForAll",
      "type": "event"
    },
    {
      "anonymous": false,
      "inputs": [
        {
          "indexed": true,
          "internalType": "contract IERC20",
          "name": "token",
          "type": "address"
        },
        {
          "indexed": false,
          "internalType": "address",
          "name": "to",
          "type": "address"
        },
        {
          "indexed": false,
          "internalType": "uint256",
          "name": "amount",
          "type": "uint256"
        }
      ],
      "name": "ERC20PaymentReleased",
      "type": "event"
    },
    {
      "anonymous": false,
      "inputs": [
        {
          "indexed": true,
          "internalType": "address",
          "name": "previousOwner",
          "type": "address"
        },
        {
          "indexed": true,
          "internalType": "address",
          "name": "newOwner",
          "type": "address"
        }
      ],
      "name": "OwnershipTransferred",
      "type": "event"
    },
    {
      "anonymous": false,
      "inputs": [
        {
          "indexed": false,
          "internalType": "address",
          "name": "account",
          "type": "address"
        },
        {
          "indexed": false,
          "internalType": "uint256",
          "name": "shares",
          "type": "uint256"
        }
      ],
      "name": "PayeeAdded",
      "type": "event"
    },
    {
      "anonymous": false,
      "inputs": [
        {
          "indexed": false,
          "internalType": "address",
          "name": "from",
          "type": "address"
        },
        {
          "indexed": false,
          "internalType": "uint256",
          "name": "amount",
          "type": "uint256"
        }
      ],
      "name": "PaymentReceived",
      "type": "event"
    },
    {
      "anonymous": false,
      "inputs": [
        {
          "indexed": false,
          "internalType": "address",
          "name": "to",
          "type": "address"
        },
        {
          "indexed": false,
          "internalType": "uint256",
          "name": "amount",
          "type": "uint256"
        }
      ],
      "name": "PaymentReleased",
      "type": "event"
    },
    {
      "anonymous": false,
      "inputs": [
        {
          "indexed": true,
          "internalType": "address",
          "name": "from",
          "type": "address"
        },
        {
          "indexed": true,
          "internalType": "address",
          "name": "to",
          "type": "address"
        },
        {
          "indexed": true,
          "internalType": "uint256",
          "name": "tokenId",
          "type": "uint256"
        }
      ],
      "name": "Transfer",
      "type": "event"
    },
    {
      "inputs": [
        {
          "internalType": "address",
          "name": "",
          "type": "address"
        }
      ],
      "name": "_presaleClaimed",
      "outputs": [
        {
          "internalType": "uint256",
          "name": "",
          "type": "uint256"
        }
      ],
      "stateMutability": "view",
      "type": "function"
    },
    {
      "inputs": [
        {
          "internalType": "address",
          "name": "to",
          "type": "address"
        },
        {
          "internalType": "uint256",
          "name": "tokenId",
          "type": "uint256"
        }
      ],
      "name": "approve",
      "outputs": [],
      "stateMutability": "nonpayable",
      "type": "function"
    },
    {
      "inputs": [
        {
          "internalType": "address",
          "name": "owner",
          "type": "address"
        }
      ],
      "name": "balanceOf",
      "outputs": [
        {
          "internalType": "uint256",
          "name": "",
          "type": "uint256"
        }
      ],
      "stateMutability": "view",
      "type": "function"
    },
    {
      "inputs": [],
      "name": "baseExtension",
      "outputs": [
        {
          "internalType": "string",
          "name": "",
          "type": "string"
        }
      ],
      "stateMutability": "view",
      "type": "function"
    },
    {
      "inputs": [],
      "name": "baseURI",
      "outputs": [
        {
          "internalType": "string",
          "name": "",
          "type": "string"
        }
      ],
      "stateMutability": "view",
      "type": "function"
    },
    {
      "inputs": [
        {
          "internalType": "uint256",
          "name": "tokenId",
          "type": "uint256"
        }
      ],
      "name": "getApproved",
      "outputs": [
        {
          "internalType": "address",
          "name": "",
          "type": "address"
        }
      ],
      "stateMutability": "view",
      "type": "function"
    },
    {
      "inputs": [
        {
          "internalType": "address",
          "name": "owner",
          "type": "address"
        },
        {
          "internalType": "address",
          "name": "operator",
          "type": "address"
        }
      ],
      "name": "isApprovedForAll",
      "outputs": [
        {
          "internalType": "bool",
          "name": "",
          "type": "bool"
        }
      ],
      "stateMutability": "view",
      "type": "function"
    },
    {
      "inputs": [],
      "name": "maxSupply",
      "outputs": [
        {
          "internalType": "uint256",
          "name": "",
          "type": "uint256"
        }
      ],
      "stateMutability": "view",
      "type": "function"
    },
    {
      "inputs": [],
      "name": "name",
      "outputs": [
        {
          "internalType": "string",
          "name": "",
          "type": "string"
        }
      ],
      "stateMutability": "view",
      "type": "function"
    },
    {
      "inputs": [],
      "name": "notRevealedUri",
      "outputs": [
        {
          "internalType": "string",
          "name": "",
          "type": "string"
        }
      ],
      "stateMutability": "view",
      "type": "function"
    },
    {
      "inputs": [],
      "name": "owner",
      "outputs": [
        {
          "internalType": "address",
          "name": "",
          "type": "address"
        }
      ],
      "stateMutability": "view",
      "type": "function"
    },
    {
      "inputs": [
        {
          "internalType": "uint256",
          "name": "tokenId",
          "type": "uint256"
        }
      ],
      "name": "ownerOf",
      "outputs": [
        {
          "internalType": "address",
          "name": "",
          "type": "address"
        }
      ],
      "stateMutability": "view",
      "type": "function"
    },
    {
      "inputs": [],
      "name": "paused",
      "outputs": [
        {
          "internalType": "bool",
          "name": "",
          "type": "bool"
        }
      ],
      "stateMutability": "view",
      "type": "function"
    },
    {
      "inputs": [
        {
          "internalType": "uint256",
          "name": "index",
          "type": "uint256"
        }
      ],
      "name": "payee",
      "outputs": [
        {
          "internalType": "address",
          "name": "",
          "type": "address"
        }
      ],
      "stateMutability": "view",
      "type": "function"
    },
    {
      "inputs": [],
      "name": "presaleM",
      "outputs": [
        {
          "internalType": "bool",
          "name": "",
          "type": "bool"
        }
      ],
      "stateMutability": "view",
      "type": "function"
    },
    {
      "inputs": [],
      "name": "publicM",
      "outputs": [
        {
          "internalType": "bool",
          "name": "",
          "type": "bool"
        }
      ],
      "stateMutability": "view",
      "type": "function"
    },
    {
      "inputs": [
        {
          "internalType": "uint256",
          "name": "_amount",
          "type": "uint256"
        }
      ],
      "name": "publicSaleMint",
      "outputs": [],
      "stateMutability": "payable",
      "type": "function"
    },
    {
      "inputs": [
        {
          "internalType": "address payable",
          "name": "account",
          "type": "address"
        }
      ],
      "name": "release",
      "outputs": [],
      "stateMutability": "nonpayable",
      "type": "function"
    },
    {
      "inputs": [
        {
          "internalType": "contract IERC20",
          "name": "token",
          "type": "address"
        },
        {
          "internalType": "address",
          "name": "account",
          "type": "address"
        }
      ],
      "name": "release",
      "outputs": [],
      "stateMutability": "nonpayable",
      "type": "function"
    },
    {
      "inputs": [
        {
          "internalType": "contract IERC20",
          "name": "token",
          "type": "address"
        },
        {
          "internalType": "address",
          "name": "account",
          "type": "address"
        }
      ],
      "name": "released",
      "outputs": [
        {
          "internalType": "uint256",
          "name": "",
          "type": "uint256"
        }
      ],
      "stateMutability": "view",
      "type": "function"
    },
    {
      "inputs": [
        {
          "internalType": "address",
          "name": "account",
          "type": "address"
        }
      ],
      "name": "released",
      "outputs": [
        {
          "internalType": "uint256",
          "name": "",
          "type": "uint256"
        }
      ],
      "stateMutability": "view",
      "type": "function"
    },
    {
      "inputs": [],
      "name": "renounceOwnership",
      "outputs": [],
      "stateMutability": "nonpayable",
      "type": "function"
    },
    {
      "inputs": [],
      "name": "reveal",
      "outputs": [],
      "stateMutability": "nonpayable",
      "type": "function"
    },
    {
      "inputs": [],
      "name": "revealed",
      "outputs": [
        {
          "internalType": "bool",
          "name": "",
          "type": "bool"
        }
      ],
      "stateMutability": "view",
      "type": "function"
    },
    {
      "inputs": [],
      "name": "root",
      "outputs": [
        {
          "internalType": "bytes32",
          "name": "",
          "type": "bytes32"
        }
      ],
      "stateMutability": "view",
      "type": "function"
    },
    {
      "inputs": [
        {
          "internalType": "address",
          "name": "from",
          "type": "address"
        },
        {
          "internalType": "address",
          "name": "to",
          "type": "address"
        },
        {
          "internalType": "uint256",
          "name": "tokenId",
          "type": "uint256"
        }
      ],
      "name": "safeTransferFrom",
      "outputs": [],
      "stateMutability": "nonpayable",
      "type": "function"
    },
    {
      "inputs": [
        {
          "internalType": "address",
          "name": "from",
          "type": "address"
        },
        {
          "internalType": "address",
          "name": "to",
          "type": "address"
        },
        {
          "internalType": "uint256",
          "name": "tokenId",
          "type": "uint256"
        },
        {
          "internalType": "bytes",
          "name": "_data",
          "type": "bytes"
        }
      ],
      "name": "safeTransferFrom",
      "outputs": [],
      "stateMutability": "nonpayable",
      "type": "function"
    },
    {
      "inputs": [
        {
          "internalType": "address",
          "name": "operator",
          "type": "address"
        },
        {
          "internalType": "bool",
          "name": "approved",
          "type": "bool"
        }
      ],
      "name": "setApprovalForAll",
      "outputs": [],
      "stateMutability": "nonpayable",
      "type": "function"
    },
    {
      "inputs": [
        {
          "internalType": "string",
          "name": "_newBaseExtension",
          "type": "string"
        }
      ],
      "name": "setBaseExtension",
      "outputs": [],
      "stateMutability": "nonpayable",
      "type": "function"
    },
    {
      "inputs": [
        {
          "internalType": "string",
          "name": "_tokenBaseURI",
          "type": "string"
        }
      ],
      "name": "setBaseURI",
      "outputs": [],
      "stateMutability": "nonpayable",
      "type": "function"
    },
    {
      "inputs": [
        {
          "internalType": "bytes32",
          "name": "merkleroot",
          "type": "bytes32"
        }
      ],
      "name": "setMerkleRoot",
      "outputs": [],
      "stateMutability": "nonpayable",
      "type": "function"
    },
    {
      "inputs": [
        {
          "internalType": "string",
          "name": "_notRevealedURI",
          "type": "string"
        }
      ],
      "name": "setNotRevealedURI",
      "outputs": [],
      "stateMutability": "nonpayable",
      "type": "function"
    },
    {
      "inputs": [
        {
          "internalType": "address",
          "name": "account",
          "type": "address"
        }
      ],
      "name": "shares",
      "outputs": [
        {
          "internalType": "uint256",
          "name": "",
          "type": "uint256"
        }
      ],
      "stateMutability": "view",
      "type": "function"
    },
    {
      "inputs": [
        {
          "internalType": "bytes4",
          "name": "interfaceId",
          "type": "bytes4"
        }
      ],
      "name": "supportsInterface",
      "outputs": [
        {
          "internalType": "bool",
          "name": "",
          "type": "bool"
        }
      ],
      "stateMutability": "view",
      "type": "function"
    },
    {
      "inputs": [],
      "name": "symbol",
      "outputs": [
        {
          "internalType": "string",
          "name": "",
          "type": "string"
        }
      ],
      "stateMutability": "view",
      "type": "function"
    },
    {
      "inputs": [],
      "name": "togglePause",
      "outputs": [],
      "stateMutability": "nonpayable",
      "type": "function"
    },
    {
      "inputs": [],
      "name": "togglePresale",
      "outputs": [],
      "stateMutability": "nonpayable",
      "type": "function"
    },
    {
      "inputs": [],
      "name": "togglePublicSale",
      "outputs": [],
      "stateMutability": "nonpayable",
      "type": "function"
    },
    {
      "inputs": [
        {
          "internalType": "uint256",
          "name": "tokenId",
          "type": "uint256"
        }
      ],
      "name": "tokenURI",
      "outputs": [
        {
          "internalType": "string",
          "name": "",
          "type": "string"
        }
      ],
      "stateMutability": "view",
      "type": "function"
    },
    {
      "inputs": [
        {
          "internalType": "contract IERC20",
          "name": "token",
          "type": "address"
        }
      ],
      "name": "totalReleased",
      "outputs": [
        {
          "internalType": "uint256",
          "name": "",
          "type": "uint256"
        }
      ],
      "stateMutability": "view",
      "type": "function"
    },
    {
      "inputs": [],
      "name": "totalReleased",
      "outputs": [
        {
          "internalType": "uint256",
          "name": "",
          "type": "uint256"
        }
      ],
      "stateMutability": "view",
      "type": "function"
    },
    {
      "inputs": [],
      "name": "totalShares",
      "outputs": [
        {
          "internalType": "uint256",
          "name": "",
          "type": "uint256"
        }
      ],
      "stateMutability": "view",
      "type": "function"
    },
    {
      "inputs": [],
      "name": "totalSupply",
      "outputs": [
        {
          "internalType": "uint256",
          "name": "",
          "type": "uint256"
        }
      ],
      "stateMutability": "view",
      "type": "function"
    },
    {
      "inputs": [
        {
          "internalType": "address",
          "name": "from",
          "type": "address"
        },
        {
          "internalType": "address",
          "name": "to",
          "type": "address"
        },
        {
          "internalType": "uint256",
          "name": "tokenId",
          "type": "uint256"
        }
      ],
      "name": "transferFrom",
      "outputs": [],
      "stateMutability": "nonpayable",
      "type": "function"
    },
    {
      "inputs": [
        {
          "internalType": "address",
          "name": "newOwner",
          "type": "address"
        }
      ],
      "name": "transferOwnership",
      "outputs": [],
      "stateMutability": "nonpayable",
      "type": "function"
    },
    {
      "stateMutability": "payable",
      "type": "receive"
    }
  ],
  "bytecode": "0x606460115561010060405260416080818152906200356660a03980516200002f9160139160209091019062000657565b5060408051808201909152600580825264173539b7b760d91b60209092019182526200005e9160149162000657565b506015805463ffffffff19166301000100179055600360165560006018556040805160208101909152606481526200009b90601a906001620006e6565b50604080516020810190915273769bbefc9992dd5b54ae361dd8d319f0e87250f98152620000ce90601b90600162000729565b50348015620000dc57600080fd5b50604051620035a7380380620035a7833981016040819052620000ff91620007cb565b601b8054806020026020016040519081016040528092919081815260200182805480156200015757602002820191906000526020600020905b81546001600160a01b0316815260019091019060200180831162000138575b5050505050601a805480602002602001604051908101604052809291908181526020018280548015620001aa57602002820191906000526020600020905b81548152602001906001019080831162000195575b5050604080518082018252600981526812195e185ddbdc9b1960ba1b6020808301918252835180850190945260048452634865786160e01b908401528151919550919350620001fe92506000919062000657565b5080516200021490600190602084019062000657565b505050620002316200022b6200039e60201b60201c565b620003a2565b60016007558051825114620002a85760405162461bcd60e51b815260206004820152603260248201527f5061796d656e7453706c69747465723a2070617965657320616e6420736861726044820152710cae640d8cadccee8d040dad2e6dac2e8c6d60731b60648201526084015b60405180910390fd5b6000825111620002fb5760405162461bcd60e51b815260206004820152601a60248201527f5061796d656e7453706c69747465723a206e6f2070617965657300000000000060448201526064016200029f565b60005b8251811015620003675762000352838281518110620003215762000321620008c6565b60200260200101518383815181106200033e576200033e620008c6565b6020026020010151620003f460201b60201c565b806200035e81620008f2565b915050620002fe565b505050600f829055601080546001600160a01b0319166001600160a01b0383161790556200039583620005e2565b50505062000968565b3390565b600680546001600160a01b038381166001600160a01b0319831681179093556040519116919082907f8be0079c531659141344cd1fd0a4f28419497f9722a3daafe3b4186f6b6457e090600090a35050565b6001600160a01b038216620004615760405162461bcd60e51b815260206004820152602c60248201527f5061796d656e7453706c69747465723a206163636f756e74206973207468652060448201526b7a65726f206164647265737360a01b60648201526084016200029f565b60008111620004b35760405162461bcd60e51b815260206004820152601d60248201527f5061796d656e7453706c69747465723a2073686172657320617265203000000060448201526064016200029f565b6001600160a01b0382166000908152600a6020526040902054156200052f5760405162461bcd60e51b815260206004820152602b60248201527f5061796d656e7453706c69747465723a206163636f756e7420616c726561647960448201526a206861732073686172657360a81b60648201526084016200029f565b600c8054600181019091557fdf6966c971051c3d54ec59162606531493a51404a002842f56009d7e5cf4a8c70180546001600160a01b0319166001600160a01b0384169081179091556000908152600a602052604090208190556008546200059990829062000910565b600855604080516001600160a01b0384168152602081018390527f40c340f65e17194d14ddddb073d3c9f888e3cb52b5aae0c6c7706b4fbc905fac910160405180910390a15050565b6006546001600160a01b031633146200063e5760405162461bcd60e51b815260206004820181905260248201527f4f776e61626c653a2063616c6c6572206973206e6f7420746865206f776e657260448201526064016200029f565b80516200065390601290602084019062000657565b5050565b82805462000665906200092b565b90600052602060002090601f016020900481019282620006895760008555620006d4565b82601f10620006a457805160ff1916838001178555620006d4565b82800160010185558215620006d4579182015b82811115620006d4578251825591602001919060010190620006b7565b50620006e292915062000781565b5090565b828054828255906000526020600020908101928215620006d4579160200282015b82811115620006d4578251829060ff1690559160200191906001019062000707565b828054828255906000526020600020908101928215620006d4579160200282015b82811115620006d457825182546001600160a01b0319166001600160a01b039091161782556020909201916001909101906200074a565b5b80821115620006e2576000815560010162000782565b634e487b7160e01b600052604160045260246000fd5b80516001600160a01b0381168114620007c657600080fd5b919050565b600080600060608486031215620007e157600080fd5b83516001600160401b0380821115620007f957600080fd5b818601915086601f8301126200080e57600080fd5b81518181111562000823576200082362000798565b604051601f8201601f19908116603f011681019083821181831017156200084e576200084e62000798565b816040528281526020935089848487010111156200086b57600080fd5b600091505b828210156200088f578482018401518183018501529083019062000870565b82821115620008a15760008484830101525b8097505050508086015193505050620008bd60408501620007ae565b90509250925092565b634e487b7160e01b600052603260045260246000fd5b634e487b7160e01b600052601160045260246000fd5b6000600019821415620009095762000909620008dc565b5060010190565b60008219821115620009265762000926620008dc565b500190565b600181811c908216806200094057607f821691505b602082108114156200096257634e487b7160e01b600052602260045260246000fd5b50919050565b612bee80620009786000396000f3fe6080604052600436106102765760003560e01c80638b83209b1161014f578063c6682862116100c1578063e222c7f91161007a578063e222c7f9146107cb578063e33b7de3146107e0578063e985e9c5146107f5578063ebf0c71714610815578063f2c4ce1e1461082b578063f2fde38b1461084b57600080fd5b8063c6682862146106f4578063c87b56dd14610709578063ce7c2ac214610729578063d5abeb011461075f578063d79779b214610775578063da3ef23f146107ab57600080fd5b8063a22cb46511610113578063a22cb46514610656578063a45063c014610676578063a475b5dd14610697578063b3ab66b0146106ac578063b88d4fde146106bf578063c4ae3168146106df57600080fd5b80638b83209b146105a05780638cc4de19146105c05780638da5cb5b146105ed57806395d89b411461060b5780639852595c1461062057600080fd5b8063406072a9116101e85780635c975abb116101ac5780635c975abb146104fc5780636352211e146105165780636c0360eb1461053657806370a082311461054b578063715018a61461056b5780637cb647591461058057600080fd5b8063406072a91461043757806342842e0e1461047d57806348b750441461049d57806351830227146104bd57806355f804b3146104dc57600080fd5b80631798d58b1161023a5780631798d58b1461038a57806318160ddd146103aa57806319165587146103cd57806323b872dd146103ed578063343937431461040d5780633a98ef391461042257600080fd5b806301ffc9a7146102c457806306fdde03146102f9578063081812fc1461031b578063081c8c4414610353578063095ea7b31461036857600080fd5b366102bf577f6ef95f06320e7a25a04a175ca677b7052bdd97131872c2192525a629f51be77033604080516001600160a01b0390921682523460208301520160405180910390a1005b600080fd5b3480156102d057600080fd5b506102e46102df3660046124aa565b61086b565b60405190151581526020015b60405180910390f35b34801561030557600080fd5b5061030e6108bd565b6040516102f0919061251f565b34801561032757600080fd5b5061033b610336366004612532565b61094f565b6040516001600160a01b0390911681526020016102f0565b34801561035f57600080fd5b5061030e6109e9565b34801561037457600080fd5b50610388610383366004612560565b610a77565b005b34801561039657600080fd5b506015546102e49062010000900460ff1681565b3480156103b657600080fd5b506103bf610b8d565b6040519081526020016102f0565b3480156103d957600080fd5b506103886103e836600461258c565b610b9d565b3480156103f957600080fd5b506103886104083660046125a9565b610ccb565b34801561041957600080fd5b50610388610cfc565b34801561042e57600080fd5b506008546103bf565b34801561044357600080fd5b506103bf6104523660046125ea565b6001600160a01b039182166000908152600e6020908152604080832093909416825291909152205490565b34801561048957600080fd5b506103886104983660046125a9565b610d45565b3480156104a957600080fd5b506103886104b83660046125ea565b610d60565b3480156104c957600080fd5b506015546102e490610100900460ff1681565b3480156104e857600080fd5b506103886104f73660046126af565b610f48565b34801561050857600080fd5b506015546102e49060ff1681565b34801561052257600080fd5b5061033b610531366004612532565b610f89565b34801561054257600080fd5b5061030e611000565b34801561055757600080fd5b506103bf61056636600461258c565b61100d565b34801561057757600080fd5b50610388611094565b34801561058c57600080fd5b5061038861059b366004612532565b6110ca565b3480156105ac57600080fd5b5061033b6105bb366004612532565b6110f9565b3480156105cc57600080fd5b506103bf6105db36600461258c565b60176020526000908152604090205481565b3480156105f957600080fd5b506006546001600160a01b031661033b565b34801561061757600080fd5b5061030e611129565b34801561062c57600080fd5b506103bf61063b36600461258c565b6001600160a01b03166000908152600b602052604090205490565b34801561066257600080fd5b50610388610671366004612706565b611138565b34801561068257600080fd5b506015546102e4906301000000900460ff1681565b3480156106a357600080fd5b50610388611143565b6103886106ba366004612532565b61117e565b3480156106cb57600080fd5b506103886106da366004612734565b611334565b3480156106eb57600080fd5b5061038861136c565b34801561070057600080fd5b5061030e6113aa565b34801561071557600080fd5b5061030e610724366004612532565b6113b7565b34801561073557600080fd5b506103bf61074436600461258c565b6001600160a01b03166000908152600a602052604090205490565b34801561076b57600080fd5b506103bf60115481565b34801561078157600080fd5b506103bf61079036600461258c565b6001600160a01b03166000908152600d602052604090205490565b3480156107b757600080fd5b506103886107c63660046126af565b611536565b3480156107d757600080fd5b50610388611573565b3480156107ec57600080fd5b506009546103bf565b34801561080157600080fd5b506102e46108103660046125ea565b6115be565b34801561082157600080fd5b506103bf600f5481565b34801561083757600080fd5b506103886108463660046126af565b61168e565b34801561085757600080fd5b5061038861086636600461258c565b6116cb565b60006001600160e01b031982166380ac58cd60e01b148061089c57506001600160e01b03198216635b5e139f60e01b145b806108b757506301ffc9a760e01b6001600160e01b03198316145b92915050565b6060600080546108cc906127b4565b80601f01602080910402602001604051908101604052809291908181526020018280546108f8906127b4565b80156109455780601f1061091a57610100808354040283529160200191610945565b820191906000526020600020905b81548152906001019060200180831161092857829003601f168201915b5050505050905090565b6000818152600260205260408120546001600160a01b03166109cd5760405162461bcd60e51b815260206004820152602c60248201527f4552433732313a20617070726f76656420717565727920666f72206e6f6e657860448201526b34b9ba32b73a103a37b5b2b760a11b60648201526084015b60405180910390fd5b506000908152600460205260409020546001600160a01b031690565b601380546109f6906127b4565b80601f0160208091040260200160405190810160405280929190818152602001828054610a22906127b4565b8015610a6f5780601f10610a4457610100808354040283529160200191610a6f565b820191906000526020600020905b815481529060010190602001808311610a5257829003601f168201915b505050505081565b6000610a8282610f89565b9050806001600160a01b0316836001600160a01b03161415610af05760405162461bcd60e51b815260206004820152602160248201527f4552433732313a20617070726f76616c20746f2063757272656e74206f776e656044820152603960f91b60648201526084016109c4565b336001600160a01b0382161480610b0c5750610b0c81336115be565b610b7e5760405162461bcd60e51b815260206004820152603860248201527f4552433732313a20617070726f76652063616c6c6572206973206e6f74206f7760448201527f6e6572206e6f7220617070726f76656420666f7220616c6c000000000000000060648201526084016109c4565b610b888383611766565b505050565b6000610b9860195490565b905090565b6001600160a01b0381166000908152600a6020526040902054610bd25760405162461bcd60e51b81526004016109c4906127ef565b6000610bdd60095490565b610be7904761284b565b90506000610c148383610c0f866001600160a01b03166000908152600b602052604090205490565b6117d4565b905080610c335760405162461bcd60e51b81526004016109c490612863565b6001600160a01b0383166000908152600b602052604081208054839290610c5b90849061284b565b925050819055508060096000828254610c74919061284b565b90915550610c8490508382611812565b604080516001600160a01b0385168152602081018390527fdf20fd1e76bc69d672e4814fafb2c449bba3a5369d8359adf9e05e6fde87b056910160405180910390a1505050565b610cd5338261192b565b610cf15760405162461bcd60e51b81526004016109c4906128ae565b610b888383836119fa565b6006546001600160a01b03163314610d265760405162461bcd60e51b81526004016109c4906128ff565b6015805462ff0000198116620100009182900460ff1615909102179055565b610b8883838360405180602001604052806000815250611334565b6001600160a01b0381166000908152600a6020526040902054610d955760405162461bcd60e51b81526004016109c4906127ef565b6001600160a01b0382166000908152600d60205260408120546040516370a0823160e01b81523060048201526001600160a01b038516906370a082319060240160206040518083038186803b158015610ded57600080fd5b505afa158015610e01573d6000803e3d6000fd5b505050506040513d601f19601f82011682018060405250810190610e259190612934565b610e2f919061284b565b90506000610e688383610c0f87876001600160a01b039182166000908152600e6020908152604080832093909416825291909152205490565b905080610e875760405162461bcd60e51b81526004016109c490612863565b6001600160a01b038085166000908152600e6020908152604080832093871683529290529081208054839290610ebe90849061284b565b90915550506001600160a01b0384166000908152600d602052604081208054839290610eeb90849061284b565b90915550610efc9050848483611b96565b604080516001600160a01b038581168252602082018490528616917f3be5b7a71e84ed12875d241991c70855ac5817d847039e17a9d895c1ceb0f18a910160405180910390a250505050565b6006546001600160a01b03163314610f725760405162461bcd60e51b81526004016109c4906128ff565b8051610f859060129060208401906123fb565b5050565b6000818152600260205260408120546001600160a01b0316806108b75760405162461bcd60e51b815260206004820152602960248201527f4552433732313a206f776e657220717565727920666f72206e6f6e657869737460448201526832b73a103a37b5b2b760b91b60648201526084016109c4565b601280546109f6906127b4565b60006001600160a01b0382166110785760405162461bcd60e51b815260206004820152602a60248201527f4552433732313a2062616c616e636520717565727920666f7220746865207a65604482015269726f206164647265737360b01b60648201526084016109c4565b506001600160a01b031660009081526003602052604090205490565b6006546001600160a01b031633146110be5760405162461bcd60e51b81526004016109c4906128ff565b6110c86000611be8565b565b6006546001600160a01b031633146110f45760405162461bcd60e51b81526004016109c4906128ff565b600f55565b6000600c828154811061110e5761110e61294d565b6000918252602090912001546001600160a01b031692915050565b6060600180546108cc906127b4565b610f85338383611c3a565b6006546001600160a01b0316331461116d5760405162461bcd60e51b81526004016109c4906128ff565b6015805461ff001916610100179055565b3332146111c25760405162461bcd60e51b81526020600482015260126024820152712737ba1030b63637bbb2b21037b934b3b4b760711b60448201526064016109c4565b6015546301000000900460ff1661121b5760405162461bcd60e51b815260206004820152601c60248201527f48657861776f726c643a205075626c696353616c65206973204f46460000000060448201526064016109c4565b60155460ff161561126e5760405162461bcd60e51b815260206004820152601d60248201527f48657861776f726c643a20436f6e74726163742069732070617573656400000060448201526064016109c4565b600081116112b75760405162461bcd60e51b815260206004820152601660248201527512195e185ddbdc9b190e881e995c9bc8185b5bdd5b9d60521b60448201526064016109c4565b60006112c260195490565b905034826018546112d39190612963565b111561132b5760405162461bcd60e51b815260206004820152602160248201527f48657861776f726c643a204e6f7420656e6f756768206574686572732073656e6044820152601d60fa1b60648201526084016109c4565b610f8582611d09565b61133e338361192b565b61135a5760405162461bcd60e51b81526004016109c4906128ae565b61136684848484611d8e565b50505050565b6006546001600160a01b031633146113965760405162461bcd60e51b81526004016109c4906128ff565b6015805460ff19811660ff90911615179055565b601480546109f6906127b4565b6000818152600260205260409020546060906001600160a01b03166114365760405162461bcd60e51b815260206004820152602f60248201527f4552433732314d657461646174613a2055524920717565727920666f72206e6f60448201526e3732bc34b9ba32b73a103a37b5b2b760891b60648201526084016109c4565b601554610100900460ff166114d75760138054611452906127b4565b80601f016020809104026020016040519081016040528092919081815260200182805461147e906127b4565b80156114cb5780601f106114a0576101008083540402835291602001916114cb565b820191906000526020600020905b8154815290600101906020018083116114ae57829003601f168201915b50505050509050919050565b60006114e1611dc1565b90506000815111611501576040518060200160405280600081525061152f565b8061150b84611dd0565b601460405160200161151f93929190612982565b6040516020818303038152906040525b9392505050565b6006546001600160a01b031633146115605760405162461bcd60e51b81526004016109c4906128ff565b8051610f859060149060208401906123fb565b6006546001600160a01b0316331461159d5760405162461bcd60e51b81526004016109c4906128ff565b6015805463ff00000019811663010000009182900460ff1615909102179055565b60105460405163c455279160e01b81526001600160a01b03848116600483015260009281169190841690829063c45527919060240160206040518083038186803b15801561160b57600080fd5b505afa15801561161f573d6000803e3d6000fd5b505050506040513d601f19601f820116820180604052508101906116439190612a46565b6001600160a01b0316141561165c5760019150506108b7565b6001600160a01b0380851660009081526005602090815260408083209387168352929052205460ff165b949350505050565b6006546001600160a01b031633146116b85760405162461bcd60e51b81526004016109c4906128ff565b8051610f859060139060208401906123fb565b6006546001600160a01b031633146116f55760405162461bcd60e51b81526004016109c4906128ff565b6001600160a01b03811661175a5760405162461bcd60e51b815260206004820152602660248201527f4f776e61626c653a206e6577206f776e657220697320746865207a65726f206160448201526564647265737360d01b60648201526084016109c4565b61176381611be8565b50565b600081815260046020526040902080546001600160a01b0319166001600160a01b038416908117909155819061179b82610f89565b6001600160a01b03167f8c5be1e5ebec7d5bd14f71427d1e84f3dd0314c0f7b2291e5b200ac8c7c3b92560405160405180910390a45050565b6008546001600160a01b0384166000908152600a6020526040812054909183916117fe9086612963565b6118089190612a79565b6116869190612a8d565b804710156118625760405162461bcd60e51b815260206004820152601d60248201527f416464726573733a20696e73756666696369656e742062616c616e636500000060448201526064016109c4565b6000826001600160a01b03168260405160006040518083038185875af1925050503d80600081146118af576040519150601f19603f3d011682016040523d82523d6000602084013e6118b4565b606091505b5050905080610b885760405162461bcd60e51b815260206004820152603a60248201527f416464726573733a20756e61626c6520746f2073656e642076616c75652c207260448201527f6563697069656e74206d6179206861766520726576657274656400000000000060648201526084016109c4565b6000818152600260205260408120546001600160a01b03166119a45760405162461bcd60e51b815260206004820152602c60248201527f4552433732313a206f70657261746f7220717565727920666f72206e6f6e657860448201526b34b9ba32b73a103a37b5b2b760a11b60648201526084016109c4565b60006119af83610f89565b9050806001600160a01b0316846001600160a01b031614806119ea5750836001600160a01b03166119df8461094f565b6001600160a01b0316145b80611686575061168681856115be565b826001600160a01b0316611a0d82610f89565b6001600160a01b031614611a715760405162461bcd60e51b815260206004820152602560248201527f4552433732313a207472616e736665722066726f6d20696e636f72726563742060448201526437bbb732b960d91b60648201526084016109c4565b6001600160a01b038216611ad35760405162461bcd60e51b8152602060048201526024808201527f4552433732313a207472616e7366657220746f20746865207a65726f206164646044820152637265737360e01b60648201526084016109c4565b611ade600082611766565b6001600160a01b0383166000908152600360205260408120805460019290611b07908490612a8d565b90915550506001600160a01b0382166000908152600360205260408120805460019290611b3590849061284b565b909155505060008181526002602052604080822080546001600160a01b0319166001600160a01b0386811691821790925591518493918716917fddf252ad1be2c89b69c2b068fc378daa952ba7f163c4a11628f55a4df523b3ef91a4505050565b604080516001600160a01b038416602482015260448082018490528251808303909101815260649091019091526020810180516001600160e01b031663a9059cbb60e01b179052610b88908490611ece565b600680546001600160a01b038381166001600160a01b0319831681179093556040519116919082907f8be0079c531659141344cd1fd0a4f28419497f9722a3daafe3b4186f6b6457e090600090a35050565b816001600160a01b0316836001600160a01b03161415611c9c5760405162461bcd60e51b815260206004820152601960248201527f4552433732313a20617070726f766520746f2063616c6c65720000000000000060448201526064016109c4565b6001600160a01b03838116600081815260056020908152604080832094871680845294825291829020805460ff191686151590811790915591519182527f17307eab39ab6107e8899845ad3d59bd9653f200f220920489ca2b5937696c31910160405180910390a3505050565b60026007541415611d5c5760405162461bcd60e51b815260206004820152601f60248201527f5265656e7472616e637947756172643a207265656e7472616e742063616c6c0060448201526064016109c4565b6002600755611d6f601980546001019055565b6000611d79611fa0565b9050611d853382611fe6565b50506001600755565b611d998484846119fa565b611da584848484612000565b6113665760405162461bcd60e51b81526004016109c490612aa4565b6060601280546108cc906127b4565b606081611df45750506040805180820190915260018152600360fc1b602082015290565b8160005b8115611e1e5780611e0881612af6565b9150611e179050600a83612a79565b9150611df8565b60008167ffffffffffffffff811115611e3957611e39612623565b6040519080825280601f01601f191660200182016040528015611e63576020820181803683370190505b5090505b841561168657611e78600183612a8d565b9150611e85600a86612b11565b611e9090603061284b565b60f81b818381518110611ea557611ea561294d565b60200101906001600160f81b031916908160001a905350611ec7600a86612a79565b9450611e67565b6000611f23826040518060400160405280602081526020017f5361666545524332303a206c6f772d6c6576656c2063616c6c206661696c6564815250856001600160a01b031661210d9092919063ffffffff16565b805190915015610b885780806020019051810190611f419190612b25565b610b885760405162461bcd60e51b815260206004820152602a60248201527f5361666545524332303a204552433230206f7065726174696f6e20646964206e6044820152691bdd081cdd58d8d9595960b21b60648201526084016109c4565b60004442604051602001611fc89291909182526020820152603160f81b604082015260410190565b6040516020818303038152906040528051906020012060001c905090565b610f8582826040518060200160405280600081525061211c565b60006001600160a01b0384163b1561210257604051630a85bd0160e11b81526001600160a01b0385169063150b7a0290612044903390899088908890600401612b42565b602060405180830381600087803b15801561205e57600080fd5b505af192505050801561208e575060408051601f3d908101601f1916820190925261208b91810190612b7f565b60015b6120e8573d8080156120bc576040519150601f19603f3d011682016040523d82523d6000602084013e6120c1565b606091505b5080516120e05760405162461bcd60e51b81526004016109c490612aa4565b805181602001fd5b6001600160e01b031916630a85bd0160e11b149050611686565b506001949350505050565b6060611686848460008561214f565b6121268383612280565b6121336000848484612000565b610b885760405162461bcd60e51b81526004016109c490612aa4565b6060824710156121b05760405162461bcd60e51b815260206004820152602660248201527f416464726573733a20696e73756666696369656e742062616c616e636520666f6044820152651c8818d85b1b60d21b60648201526084016109c4565b6001600160a01b0385163b6122075760405162461bcd60e51b815260206004820152601d60248201527f416464726573733a2063616c6c20746f206e6f6e2d636f6e747261637400000060448201526064016109c4565b600080866001600160a01b031685876040516122239190612b9c565b60006040518083038185875af1925050503d8060008114612260576040519150601f19603f3d011682016040523d82523d6000602084013e612265565b606091505b50915091506122758282866123c2565b979650505050505050565b6001600160a01b0382166122d65760405162461bcd60e51b815260206004820181905260248201527f4552433732313a206d696e7420746f20746865207a65726f206164647265737360448201526064016109c4565b6000818152600260205260409020546001600160a01b03161561233b5760405162461bcd60e51b815260206004820152601c60248201527f4552433732313a20746f6b656e20616c7265616479206d696e7465640000000060448201526064016109c4565b6001600160a01b038216600090815260036020526040812080546001929061236490849061284b565b909155505060008181526002602052604080822080546001600160a01b0319166001600160a01b03861690811790915590518392907fddf252ad1be2c89b69c2b068fc378daa952ba7f163c4a11628f55a4df523b3ef908290a45050565b606083156123d157508161152f565b8251156123e15782518084602001fd5b8160405162461bcd60e51b81526004016109c4919061251f565b828054612407906127b4565b90600052602060002090601f016020900481019282612429576000855561246f565b82601f1061244257805160ff191683800117855561246f565b8280016001018555821561246f579182015b8281111561246f578251825591602001919060010190612454565b5061247b92915061247f565b5090565b5b8082111561247b5760008155600101612480565b6001600160e01b03198116811461176357600080fd5b6000602082840312156124bc57600080fd5b813561152f81612494565b60005b838110156124e25781810151838201526020016124ca565b838111156113665750506000910152565b6000815180845261250b8160208601602086016124c7565b601f01601f19169290920160200192915050565b60208152600061152f60208301846124f3565b60006020828403121561254457600080fd5b5035919050565b6001600160a01b038116811461176357600080fd5b6000806040838503121561257357600080fd5b823561257e8161254b565b946020939093013593505050565b60006020828403121561259e57600080fd5b813561152f8161254b565b6000806000606084860312156125be57600080fd5b83356125c98161254b565b925060208401356125d98161254b565b929592945050506040919091013590565b600080604083850312156125fd57600080fd5b82356126088161254b565b915060208301356126188161254b565b809150509250929050565b634e487b7160e01b600052604160045260246000fd5b600067ffffffffffffffff8084111561265457612654612623565b604051601f8501601f19908116603f0116810190828211818310171561267c5761267c612623565b8160405280935085815286868601111561269557600080fd5b858560208301376000602087830101525050509392505050565b6000602082840312156126c157600080fd5b813567ffffffffffffffff8111156126d857600080fd5b8201601f810184136126e957600080fd5b61168684823560208401612639565b801515811461176357600080fd5b6000806040838503121561271957600080fd5b82356127248161254b565b91506020830135612618816126f8565b6000806000806080858703121561274a57600080fd5b84356127558161254b565b935060208501356127658161254b565b925060408501359150606085013567ffffffffffffffff81111561278857600080fd5b8501601f8101871361279957600080fd5b6127a887823560208401612639565b91505092959194509250565b600181811c908216806127c857607f821691505b602082108114156127e957634e487b7160e01b600052602260045260246000fd5b50919050565b60208082526026908201527f5061796d656e7453706c69747465723a206163636f756e7420686173206e6f2060408201526573686172657360d01b606082015260800190565b634e487b7160e01b600052601160045260246000fd5b6000821982111561285e5761285e612835565b500190565b6020808252602b908201527f5061796d656e7453706c69747465723a206163636f756e74206973206e6f742060408201526a191d59481c185e5b595b9d60aa1b606082015260800190565b60208082526031908201527f4552433732313a207472616e736665722063616c6c6572206973206e6f74206f6040820152701ddb995c881b9bdc88185c1c1c9bdd9959607a1b606082015260800190565b6020808252818101527f4f776e61626c653a2063616c6c6572206973206e6f7420746865206f776e6572604082015260600190565b60006020828403121561294657600080fd5b5051919050565b634e487b7160e01b600052603260045260246000fd5b600081600019048311821515161561297d5761297d612835565b500290565b6000845160206129958285838a016124c7565b8551918401916129a88184848a016124c7565b8554920191600090600181811c90808316806129c557607f831692505b8583108114156129e357634e487b7160e01b85526022600452602485fd5b8080156129f75760018114612a0857612a35565b60ff19851688528388019550612a35565b60008b81526020902060005b85811015612a2d5781548a820152908401908801612a14565b505083880195505b50939b9a5050505050505050505050565b600060208284031215612a5857600080fd5b815161152f8161254b565b634e487b7160e01b600052601260045260246000fd5b600082612a8857612a88612a63565b500490565b600082821015612a9f57612a9f612835565b500390565b60208082526032908201527f4552433732313a207472616e7366657220746f206e6f6e20455243373231526560408201527131b2b4bb32b91034b6b83632b6b2b73a32b960711b606082015260800190565b6000600019821415612b0a57612b0a612835565b5060010190565b600082612b2057612b20612a63565b500690565b600060208284031215612b3757600080fd5b815161152f816126f8565b6001600160a01b0385811682528416602082015260408101839052608060608201819052600090612b75908301846124f3565b9695505050505050565b600060208284031215612b9157600080fd5b815161152f81612494565b60008251612bae8184602087016124c7565b919091019291505056fea26469706673582212207fc370a698b326214ae541a3ea1a7956dcf63a9daca9428b46396efcffbcbe8d64736f6c63430008090033697066733a2f2f516d595575774c6f69526238776f58774a434373723167766272384532314b757852746d56426d6e4831745a7a372f68696464656e2e6a736f6e",
  "linkReferences": {},
  "deployedLinkReferences": {}
}